{
  "_format": "hh-sol-artifact-1",
  "contractName": "Marketplace",
  "sourceName": "contracts/Marketplace.sol",
  "abi": [
    {
      "inputs": [
        {
          "internalType": "address",
          "name": "_tokenAddress",
          "type": "address"
        }
      ],
      "stateMutability": "nonpayable",
      "type": "constructor"
    },
    {
      "inputs": [],
      "name": "ReentrancyGuardReentrantCall",
      "type": "error"
    },
    {
      "anonymous": false,
      "inputs": [
        {
          "indexed": true,
          "internalType": "uint256",
          "name": "id",
          "type": "uint256"
        },
        {
          "indexed": true,
          "internalType": "address",
          "name": "seller",
          "type": "address"
        }
      ],
      "name": "ItemDelisted",
      "type": "event"
    },
    {
      "anonymous": false,
      "inputs": [
        {
          "indexed": true,
          "internalType": "uint256",
          "name": "id",
          "type": "uint256"
        },
        {
          "indexed": true,
          "internalType": "address",
          "name": "seller",
          "type": "address"
        },
        {
          "indexed": false,
          "internalType": "string",
          "name": "name",
          "type": "string"
        },
        {
          "indexed": false,
          "internalType": "uint256",
          "name": "price",
          "type": "uint256"
        }
      ],
      "name": "ItemListed",
      "type": "event"
    },
    {
      "anonymous": false,
      "inputs": [
        {
          "indexed": true,
          "internalType": "uint256",
          "name": "id",
          "type": "uint256"
        },
        {
          "indexed": true,
          "internalType": "address",
          "name": "buyer",
          "type": "address"
        },
        {
          "indexed": true,
          "internalType": "address",
          "name": "seller",
          "type": "address"
        },
        {
          "indexed": false,
          "internalType": "uint256",
          "name": "price",
          "type": "uint256"
        }
      ],
      "name": "ItemSold",
      "type": "event"
    },
    {
      "inputs": [
        {
          "internalType": "uint256",
          "name": "_itemId",
          "type": "uint256"
        }
      ],
      "name": "buyItem",
      "outputs": [],
      "stateMutability": "nonpayable",
      "type": "function"
    },
    {
      "inputs": [
        {
          "internalType": "uint256",
          "name": "_itemId",
          "type": "uint256"
        }
      ],
      "name": "delistItem",
      "outputs": [],
      "stateMutability": "nonpayable",
      "type": "function"
    },
    {
      "inputs": [
        {
          "internalType": "uint256",
          "name": "_itemId",
          "type": "uint256"
        }
      ],
      "name": "getItem",
      "outputs": [
        {
          "components": [
            {
              "internalType": "uint256",
              "name": "id",
              "type": "uint256"
            },
            {
              "internalType": "address",
              "name": "seller",
              "type": "address"
            },
            {
              "internalType": "string",
              "name": "name",
              "type": "string"
            },
            {
              "internalType": "string",
              "name": "description",
              "type": "string"
            },
            {
              "internalType": "uint256",
              "name": "price",
              "type": "uint256"
            },
            {
              "internalType": "bool",
              "name": "available",
              "type": "bool"
            }
          ],
          "internalType": "struct Marketplace.Item",
          "name": "",
          "type": "tuple"
        }
      ],
      "stateMutability": "view",
      "type": "function"
    },
    {
      "inputs": [],
      "name": "itemCount",
      "outputs": [
        {
          "internalType": "uint256",
          "name": "",
          "type": "uint256"
        }
      ],
      "stateMutability": "view",
      "type": "function"
    },
    {
      "inputs": [
        {
          "internalType": "uint256",
          "name": "",
          "type": "uint256"
        }
      ],
      "name": "items",
      "outputs": [
        {
          "internalType": "uint256",
          "name": "id",
          "type": "uint256"
        },
        {
          "internalType": "address",
          "name": "seller",
          "type": "address"
        },
        {
          "internalType": "string",
          "name": "name",
          "type": "string"
        },
        {
          "internalType": "string",
          "name": "description",
          "type": "string"
        },
        {
          "internalType": "uint256",
          "name": "price",
          "type": "uint256"
        },
        {
          "internalType": "bool",
          "name": "available",
          "type": "bool"
        }
      ],
      "stateMutability": "view",
      "type": "function"
    },
    {
      "inputs": [
        {
          "internalType": "string",
          "name": "_name",
          "type": "string"
        },
        {
          "internalType": "string",
          "name": "_description",
          "type": "string"
        },
        {
          "internalType": "uint256",
          "name": "_price",
          "type": "uint256"
        }
      ],
      "name": "listItem",
      "outputs": [],
      "stateMutability": "nonpayable",
      "type": "function"
    },
    {
      "inputs": [],
      "name": "token",
      "outputs": [
        {
          "internalType": "contract IERC20",
          "name": "",
          "type": "address"
        }
      ],
      "stateMutability": "view",
      "type": "function"
    }
  ],
  "bytecode": "0x60806040523480156200001157600080fd5b50604051620018c6380380620018c68339818101604052810190620000379190620000f1565b600160008190555080600160006101000a81548173ffffffffffffffffffffffffffffffffffffffff021916908373ffffffffffffffffffffffffffffffffffffffff1602179055505062000123565b600080fd5b600073ffffffffffffffffffffffffffffffffffffffff82169050919050565b6000620000b9826200008c565b9050919050565b620000cb81620000ac565b8114620000d757600080fd5b50565b600081519050620000eb81620000c0565b92915050565b6000602082840312156200010a576200010962000087565b5b60006200011a84828501620000da565b91505092915050565b61179380620001336000396000f3fe608060405234801561001057600080fd5b506004361061007d5760003560e01c80636bfb0d011161005b5780636bfb0d01146100ea578063bfb231d214610108578063e7fb74c71461013d578063fc0c546a146101595761007d565b80630562021c14610082578063100616311461009e5780633129e773146100ba575b600080fd5b61009c60048036038101906100979190610cfb565b610177565b005b6100b860048036038101906100b39190610d86565b610331565b005b6100d460048036038101906100cf9190610d86565b610490565b6040516100e19190610f2d565b60405180910390f35b6100f2610666565b6040516100ff9190610f5e565b60405180910390f35b610122600480360381019061011d9190610d86565b61066c565b60405161013496959493929190610fe1565b60405180910390f35b61015760048036038101906101529190610d86565b6107e5565b005b610161610aa7565b60405161016e91906110af565b60405180910390f35b600081116101ba576040517f08c379a00000000000000000000000000000000000000000000000000000000081526004016101b190611116565b60405180910390fd5b600360008154809291906101cd90611165565b91905055506040518060c0016040528060035481526020013373ffffffffffffffffffffffffffffffffffffffff168152602001848152602001838152602001828152602001600115158152506002600060035481526020019081526020016000206000820151816000015560208201518160010160006101000a81548173ffffffffffffffffffffffffffffffffffffffff021916908373ffffffffffffffffffffffffffffffffffffffff160217905550604082015181600201908161029591906113af565b5060608201518160030190816102ab91906113af565b506080820151816004015560a08201518160050160006101000a81548160ff0219169083151502179055509050503373ffffffffffffffffffffffffffffffffffffffff166003547f4e3807e76e8c2a7b6547b6189eba5d3dc4fe2bc48c057e8ec545ec13be8063c58584604051610324929190611481565b60405180910390a3505050565b60006002600083815260200190815260200160002090503373ffffffffffffffffffffffffffffffffffffffff168160010160009054906101000a900473ffffffffffffffffffffffffffffffffffffffff1673ffffffffffffffffffffffffffffffffffffffff16146103da576040517f08c379a00000000000000000000000000000000000000000000000000000000081526004016103d1906114fd565b60405180910390fd5b8060050160009054906101000a900460ff1661042b576040517f08c379a000000000000000000000000000000000000000000000000000000000815260040161042290611569565b60405180910390fd5b60008160050160006101000a81548160ff0219169083151502179055503373ffffffffffffffffffffffffffffffffffffffff16827fcd69f8512d5dbb6c8101e48b86eee5edf783a51bc5e597bc5c832971e40fc91360405160405180910390a35050565b610498610b1d565b600260008381526020019081526020016000206040518060c0016040529081600082015481526020016001820160009054906101000a900473ffffffffffffffffffffffffffffffffffffffff1673ffffffffffffffffffffffffffffffffffffffff1673ffffffffffffffffffffffffffffffffffffffff168152602001600282018054610526906111dc565b80601f0160208091040260200160405190810160405280929190818152602001828054610552906111dc565b801561059f5780601f106105745761010080835404028352916020019161059f565b820191906000526020600020905b81548152906001019060200180831161058257829003601f168201915b505050505081526020016003820180546105b8906111dc565b80601f01602080910402602001604051908101604052809291908181526020018280546105e4906111dc565b80156106315780601f1061060657610100808354040283529160200191610631565b820191906000526020600020905b81548152906001019060200180831161061457829003601f168201915b50505050508152602001600482015481526020016005820160009054906101000a900460ff1615151515815250509050919050565b60035481565b60026020528060005260406000206000915090508060000154908060010160009054906101000a900473ffffffffffffffffffffffffffffffffffffffff16908060020180546106bb906111dc565b80601f01602080910402602001604051908101604052809291908181526020018280546106e7906111dc565b80156107345780601f1061070957610100808354040283529160200191610734565b820191906000526020600020905b81548152906001019060200180831161071757829003601f168201915b505050505090806003018054610749906111dc565b80601f0160208091040260200160405190810160405280929190818152602001828054610775906111dc565b80156107c25780601f10610797576101008083540402835291602001916107c2565b820191906000526020600020905b8154815290600101906020018083116107a557829003601f168201915b5050505050908060040154908060050160009054906101000a900460ff16905086565b6107ed610acd565b60006002600083815260200190815260200160002090508060050160009054906101000a900460ff16610855576040517f08c379a000000000000000000000000000000000000000000000000000000000815260040161084c906115d5565b60405180910390fd5b3373ffffffffffffffffffffffffffffffffffffffff168160010160009054906101000a900473ffffffffffffffffffffffffffffffffffffffff1673ffffffffffffffffffffffffffffffffffffffff16036108e7576040517f08c379a00000000000000000000000000000000000000000000000000000000081526004016108de90611641565b60405180910390fd5b600160009054906101000a900473ffffffffffffffffffffffffffffffffffffffff1673ffffffffffffffffffffffffffffffffffffffff166323b872dd338360010160009054906101000a900473ffffffffffffffffffffffffffffffffffffffff1684600401546040518463ffffffff1660e01b815260040161096e93929190611661565b6020604051808303816000875af115801561098d573d6000803e3d6000fd5b505050506040513d601f19601f820116820180604052508101906109b191906116c4565b6109f0576040517f08c379a00000000000000000000000000000000000000000000000000000000081526004016109e79061173d565b60405180910390fd5b60008160050160006101000a81548160ff0219169083151502179055508060010160009054906101000a900473ffffffffffffffffffffffffffffffffffffffff1673ffffffffffffffffffffffffffffffffffffffff163373ffffffffffffffffffffffffffffffffffffffff16837f04ddd54c6b746e69ba87f862311f7670bd1d7276846778ac81cd38747b27a7468460040154604051610a939190610f5e565b60405180910390a450610aa4610b13565b50565b600160009054906101000a900473ffffffffffffffffffffffffffffffffffffffff1681565b600260005403610b09576040517f3ee5aeb500000000000000000000000000000000000000000000000000000000815260040160405180910390fd5b6002600081905550565b6001600081905550565b6040518060c0016040528060008152602001600073ffffffffffffffffffffffffffffffffffffffff1681526020016060815260200160608152602001600081526020016000151581525090565b6000604051905090565b600080fd5b600080fd5b600080fd5b600080fd5b6000601f19601f8301169050919050565b7f4e487b7100000000000000000000000000000000000000000000000000000000600052604160045260246000fd5b610bd282610b89565b810181811067ffffffffffffffff82111715610bf157610bf0610b9a565b5b80604052505050565b6000610c04610b6b565b9050610c108282610bc9565b919050565b600067ffffffffffffffff821115610c3057610c2f610b9a565b5b610c3982610b89565b9050602081019050919050565b82818337600083830152505050565b6000610c68610c6384610c15565b610bfa565b905082815260208101848484011115610c8457610c83610b84565b5b610c8f848285610c46565b509392505050565b600082601f830112610cac57610cab610b7f565b5b8135610cbc848260208601610c55565b91505092915050565b6000819050919050565b610cd881610cc5565b8114610ce357600080fd5b50565b600081359050610cf581610ccf565b92915050565b600080600060608486031215610d1457610d13610b75565b5b600084013567ffffffffffffffff811115610d3257610d31610b7a565b5b610d3e86828701610c97565b935050602084013567ffffffffffffffff811115610d5f57610d5e610b7a565b5b610d6b86828701610c97565b9250506040610d7c86828701610ce6565b9150509250925092565b600060208284031215610d9c57610d9b610b75565b5b6000610daa84828501610ce6565b91505092915050565b610dbc81610cc5565b82525050565b600073ffffffffffffffffffffffffffffffffffffffff82169050919050565b6000610ded82610dc2565b9050919050565b610dfd81610de2565b82525050565b600081519050919050565b600082825260208201905092915050565b60005b83811015610e3d578082015181840152602081019050610e22565b60008484015250505050565b6000610e5482610e03565b610e5e8185610e0e565b9350610e6e818560208601610e1f565b610e7781610b89565b840191505092915050565b60008115159050919050565b610e9781610e82565b82525050565b600060c083016000830151610eb56000860182610db3565b506020830151610ec86020860182610df4565b5060408301518482036040860152610ee08282610e49565b91505060608301518482036060860152610efa8282610e49565b9150506080830151610f0f6080860182610db3565b5060a0830151610f2260a0860182610e8e565b508091505092915050565b60006020820190508181036000830152610f478184610e9d565b905092915050565b610f5881610cc5565b82525050565b6000602082019050610f736000830184610f4f565b92915050565b610f8281610de2565b82525050565b600082825260208201905092915050565b6000610fa482610e03565b610fae8185610f88565b9350610fbe818560208601610e1f565b610fc781610b89565b840191505092915050565b610fdb81610e82565b82525050565b600060c082019050610ff66000830189610f4f565b6110036020830188610f79565b81810360408301526110158187610f99565b905081810360608301526110298186610f99565b90506110386080830185610f4f565b61104560a0830184610fd2565b979650505050505050565b6000819050919050565b600061107561107061106b84610dc2565b611050565b610dc2565b9050919050565b60006110878261105a565b9050919050565b60006110998261107c565b9050919050565b6110a98161108e565b82525050565b60006020820190506110c460008301846110a0565b92915050565b7f5072696365206d7573742062652067726561746572207468616e203000000000600082015250565b6000611100601c83610f88565b915061110b826110ca565b602082019050919050565b6000602082019050818103600083015261112f816110f3565b9050919050565b7f4e487b7100000000000000000000000000000000000000000000000000000000600052601160045260246000fd5b600061117082610cc5565b91507fffffffffffffffffffffffffffffffffffffffffffffffffffffffffffffffff82036111a2576111a1611136565b5b600182019050919050565b7f4e487b7100000000000000000000000000000000000000000000000000000000600052602260045260246000fd5b600060028204905060018216806111f457607f821691505b602082108103611207576112066111ad565b5b50919050565b60008190508160005260206000209050919050565b60006020601f8301049050919050565b600082821b905092915050565b60006008830261126f7fffffffffffffffffffffffffffffffffffffffffffffffffffffffffffffffff82611232565b6112798683611232565b95508019841693508086168417925050509392505050565b60006112ac6112a76112a284610cc5565b611050565b610cc5565b9050919050565b6000819050919050565b6112c683611291565b6112da6112d2826112b3565b84845461123f565b825550505050565b600090565b6112ef6112e2565b6112fa8184846112bd565b505050565b5b8181101561131e576113136000826112e7565b600181019050611300565b5050565b601f821115611363576113348161120d565b61133d84611222565b8101602085101561134c578190505b61136061135885611222565b8301826112ff565b50505b505050565b600082821c905092915050565b600061138660001984600802611368565b1980831691505092915050565b600061139f8383611375565b9150826002028217905092915050565b6113b882610e03565b67ffffffffffffffff8111156113d1576113d0610b9a565b5b6113db82546111dc565b6113e6828285611322565b600060209050601f8311600181146114195760008415611407578287015190505b6114118582611393565b865550611479565b601f1984166114278661120d565b60005b8281101561144f5784890151825560018201915060208501945060208101905061142a565b8683101561146c5784890151611468601f891682611375565b8355505b6001600288020188555050505b505050505050565b6000604082019050818103600083015261149b8185610f99565b90506114aa6020830184610f4f565b9392505050565b7f4f6e6c792073656c6c65722063616e2064656c69737400000000000000000000600082015250565b60006114e7601683610f88565b91506114f2826114b1565b602082019050919050565b60006020820190508181036000830152611516816114da565b9050919050565b7f4974656d20616c726561647920736f6c64000000000000000000000000000000600082015250565b6000611553601183610f88565b915061155e8261151d565b602082019050919050565b6000602082019050818103600083015261158281611546565b9050919050565b7f4974656d206e6f7420617661696c61626c650000000000000000000000000000600082015250565b60006115bf601283610f88565b91506115ca82611589565b602082019050919050565b600060208201905081810360008301526115ee816115b2565b9050919050565b7f43616e6e6f742062757920796f7572206f776e206974656d0000000000000000600082015250565b600061162b601883610f88565b9150611636826115f5565b602082019050919050565b6000602082019050818103600083015261165a8161161e565b9050919050565b60006060820190506116766000830186610f79565b6116836020830185610f79565b6116906040830184610f4f565b949350505050565b6116a181610e82565b81146116ac57600080fd5b50565b6000815190506116be81611698565b92915050565b6000602082840312156116da576116d9610b75565b5b60006116e8848285016116af565b91505092915050565b7f5061796d656e74206661696c6564000000000000000000000000000000000000600082015250565b6000611727600e83610f88565b9150611732826116f1565b602082019050919050565b600060208201905081810360008301526117568161171a565b905091905056fea2646970667358221220301aa232c9af52eff9ffbf14e68d558b4b811b2e2a28387bc4e4a44c2d12c34964736f6c63430008140033",
  "linkReferences": {},
  "deployedLinkReferences": {}
}